:1000000019C033C032C031C030C02FC02EC02DC087
:1000100068C32BC02AC029C028C027C026C025C05D
:1000200024C0FBC322C021C020C01FC0FAC21DC013
:100030001CC01BC011241FBECFEFCDBFDFE3DEBF4E
:100040001EE3A0E0BEE3EBE6FEE002C005900D92E9
:10005000A632B107D9F72EE3A6E2BEE301C01D9296
:10006000A93CB207E1F7D8D1F3C6CACF0F931F93CB
:10007000F8940091C53E1091C63E2091C73E309144
:10008000C83E789441E0061717072807390708F09B
:1000900040E0842F1F910F910895F8941092C53E6F
:1000A0001092C63E1092C73E1092C83E78940895B2
:1000B0002F923F924F925F926F927F928F929F9278
:1000C000AF92BF92CF92DF92EF92FF920F931F9366
:1000D000CF93DF939B01AC01AAE0B0E09DD62B014A
:1000E0003C01DBDF8091C43E813011F41092C43EAC
:1000F0008091033E9091043E89339043A9F1E3E659
:10010000FEE880E090E0A0E0219131914091033E33
:100110005091043EB901645171094617570750F0D8
:100120004091033E5091043E2C5E3F4F241735070B
:1001300008F07EC001968430910531F789E390E3A1
:100140008093033E9093043E80912B3EA81310921F
:100150002A3E80912A3E8F5F80932A3E833010F0A2
:10016000A093613EA0932B3E8091C33E813011F459
:100170001092C33E8091C23E813009F041C092E6A8
:10018000E92E9EE3F92E25E0C22E2EE3D22E32E890
:10019000232E3EE3332E00E010E0E801CC0FDD1FFC
:1001A000CC0FDD1FCE55D14C88819981AA81BB81AE
:1001B000F70181939193A193B1937F016881798134
:1001C0008A819B81F60181909190A190B1906F01FD
:1001D000DED4A501940169D5F101619371938193F6
:1001E00091931F01188219821A821B820F5F1F4F81
:1001F0000830110591F61092C23EF0E1F093270409
:10020000C301B20133DF81116DCFDF91CF911F9117
:100210000F91FF90EF90DF90CF90BF90AF909F90A5
:100220008F907F906F905F904F903F902F900895A8
:1002300021E030E0082E01C0220F0A94EAF7A22B39
:1002400079CF6D30710564F44CE050E0461B570BDC
:100250002FEF3FE002C0359527954A95E2F702C09F
:100260002FEF3BE08D30910564F44CE050E0481BEB
:10027000590B8FEF9FE002C0959587954A95E2F75D
:1002800002C08FEF9BE080935F3E9093603E20938F
:100290005D3E30935E3E08959091040895FFFCCF3B
:1002A0008093020808950F931F93CF93DF93EC017F
:1002B0008C0101501F4F8991882321F0EDDFC01779
:1002C000D107C9F7DF91CF911F910F9108954F92F8
:1002D0005F926F927F928F929F92AF92BF92CF92D6
:1002E000DF92EF92FF920F931F93CF93DF93CDB7DF
:1002F000DEB72A97CDBFDEBF6B017C01042F97FFCD
:100300000AC0F094E094D094C094C11CD11CE11CAC
:10031000F11C8DE2C1DFCE0101965C0110E04C01C1
:100320008AE0482E512C612C712CC701B601A30123
:10033000920156D5605DF50161935F0169017A0113
:1003400010162CF0C114D104E104F10419F01F5F60
:10035000193059F707FF1DC0A12E012E000CBB0854
:10036000802F992781950CF490957C01A816B906E9
:10037000A4F484E59EE897DFDD24D394EA18FB0813
:100380008D2D90E08E159F0544F480E385DFD39496
:10039000F7CF002311F01FEF100FE02FFF27E1959B
:1003A0000CF4F0956F01E12E012E000CFF08F40112
:1003B000EE0DFF1D808170DF07FF05C0EC14FD040A
:1003C00011F48EE269DF115070F72A96CDBFDEBFBF
:1003D000DF91CF911F910F91FF90EF90DF90CF9021
:1003E000BF90AF909F908F907F906F905F904F9055
:1003F0000895CF93DF93D42FC0E0CD1739F020E0DC
:1004000030E040E251E451D4CF5FF7CFC19589D3BA
:100410004C2FDF91CF915BCF90E088ED84BF90931C
:10042000610080E180932004C1E0C093020484E075
:10043000809310048FE08093400480932104D2E0E5
:10044000D093010488E0809312041092000A109265
:10045000010A1092020A1092030AC0930A0A80ED60
:1004600097E08093260A9093270AC093000AC093CE
:100470000B0A8091010281608093010280E88093E1
:10048000050883E080930708A09125110A2E000C2F
:10049000BB0B20E03DE241E351E0C8D4DC01CB01DD
:1004A0002AE0B695A795979587952A95D1F7935DFC
:1004B000AE4CBE4FBC01CD0136E0660F771F881FE2
:1004C000991F3A95D1F763D320E030E046E958E42C
:1004D000B6D220E030E040E05FE345D229D360931C
:1004E00008087093090880910408806880930408C4
:1004F00080EC809306081092A000D093A10083E8BE
:100500008093000686E08093010685E080930206D2
:100510001092030610920406109205068FEF809346
:100520000606C093080610920906C0930A06C093F7
:100530000B0610920C06C093160678942FEF84E3F6
:100540009CE0215080409040E1F700C0000085E52C
:100550008093020640E8842E42E0942EA12CB12C18
:10056000C8EC6AE070E080E090E0A2DD0091613EBE
:1005700010E06091663E7091673E8091683E909178
:10058000693EA50194010AD4B801C9015ADEC150DF
:1005900041F7C2E6DEE3C12CD12C760140E0C70171
:1005A000B60195DE80E278DE8E01699179918991BC
:1005B0009991EDD22DE030E04DEC55E376D320E07B
:1005C00030E048EC52E471D341E013DF87E59EE868
:1005D0006ADEF801608171818281938140E077DE7B
:1005E00089E05ADEFFEFCF1ADF0AEF0AFF0A28E0A0
:1005F000C216D104E104F10489F66091033E7091C2
:10060000043E80E090E040E062DE89E045DE6091FB
:10061000613E70E080E090E040E059DE8AE03CDE40
:100620009FCF1F920F920FB60F9211248F939F931B
:10063000EF93FF93CF93DF931F92CDB7DEB78FEF8A
:100640009FE080935F3E9093603E10925D3E1092DB
:100650005E3E80912D3E811130C080912E3E8111F1
:1006600002C01092013E80912E3E8B3250F08FEFEF
:100670008093013E80932E3E80912C3E816080933A
:100680002C3EE0912E3EF0E080910008E15DF14CBF
:10069000808380912E3E8F5F80932E3EE0912E3E90
:1006A000F0E0E25DF14C8081803251F481E0809392
:1006B0002D3E8FEF8093013E03C080910008898317
:1006C000809104088068809304080F90DF91CF9197
:1006D000FF91EF919F918F910F900FBE0F901F9000
:1006E00018951F920F920FB60F9211242F933F93DC
:1006F0004F935F936F937F938F939F93AF93BF932A
:100700008091C53E9091C63EA091C73EB091C83E33
:100710000196A11DB11D8093C53E9093C63EA09346
:10072000C73EB093C83E81E08093C43E8091293E8D
:100730008F5F8093293E9091023E9817C8F41092E3
:10074000293E80915B3E90915C3E181619066CF430
:1007500080915B3E90915C3E019780935B3E9093CD
:100760005C3E88E08093030403C088E08093020429
:100770008FE080934604809326042091283E822FA8
:1007800063E000D331E0390F81E090E001C0880FD1
:100790003A95EAF780932504233060F481E0809352
:1007A000260484E0289FA001112480915D3E909151
:1007B0005E3E11C02630B8F481E080932504422FBC
:1007C00050E043505109440F551F440F551F80916D
:1007D0005F3E9091603E02C0959587954A95E2F7FD
:1007E0008F70809345042F5F233318F42093283EA5
:1007F00002C01092283E81E080930B0ABF91AF9116
:100800009F918F917F916F915F914F913F912F9128
:100810000F900FBE0F901F9018951F920F920FB65A
:100820000F9211242F933F934F935F936F937F9376
:100830008F939F93EF93FF938091003E882321F045
:1008400081508093003E73C08091273E813041F4F7
:100850002091033E3091043E2933304309F479C09E
:100860009091C23E911163C0209110063091110603
:1008700094E0899FF0011124EE55F14C40815181A3
:1008800062817381420F531F611D711D408351832B
:10089000628373838F5F883018F48093273E0FC084
:1008A0001092273E8091263E8F5F8A3018F4809305
:1008B000263E05C01092263E81E08093C23E82E033
:1008C0008093003EE091273EF0E0E55AF1478081B9
:1008D000803258F18C3FE1F048F48A3FF1F08B3FD1
:1008E00019F585E48093020680E21BC08E3F29F053
:1008F00050F085E5809302061AC085E080930206D9
:100900001092A00014C085E48093020680E109C023
:1009100085E48093020680E404C085E480930206A7
:1009200080E38093A00003C08FE18093060681E0FE
:1009300080930B06FF91EF919F918F917F916F9123
:100940005F914F913F912F910F900FBE0F901F908D
:10095000189520911006309111062093033E309394
:10096000043E7ECF5058BB27AA270E94CA040C948D
:100970001B060E940D0638F00E94140620F039F480
:100980009F3F19F426F40C940A060EF4E095E7FB59
:100990000C940406E92F0E942C0658F3BA1762073C
:1009A00073078407950720F079F4A6F50C944E069A
:1009B0000EF4E0950B2EBA2FA02D0B01B90190017A
:1009C0000C01CA01A0011124FF27591B99F0593FBE
:1009D00050F4503E68F11A16F040A22F232F342F06
:1009E0004427585FF3CF469537952795A795F04054
:1009F0005395C9F77EF41F16BA0B620B730B840B69
:100A0000BAF09150A1F0FF0FBB1F661F771F881F20
:100A1000C2F70EC0BA0F621F731F841F48F4879578
:100A200077956795B795F7959E3F08F0B0CF93956A
:100A3000880F08F09927EE0F9795879508950E94E3
:100A400033050C941B060E94140658F00E940D06F4
:100A500040F029F45F3F29F00C94040651110C94E6
:100A60004F060C940A060E942C0668F39923B1F3F2
:100A7000552391F3951B550BBB27AA2762177307C4
:100A8000840738F09F5F5F4F220F331F441FAA1F58
:100A9000A9F335D00E2E3AF0E0E832D09150504014
:100AA000E695001CCAF72BD0FE2F29D0660F771FC2
:100AB000881FBB1F261737074807AB07B0E809F0A8
:100AC000BB0B802DBF01FF2793585F4F3AF09E3F2D
:100AD000510578F00C9404060C944F065F3FE4F344
:100AE000983ED4F3869577956795B795F7959F5F70
:100AF000C9F7880F911D9695879597F90895E1E0BC
:100B0000660F771F881FBB1F621773078407BA071A
:100B100020F0621B730B840BBA0BEE1F88F7E09575
:100B200008950E9498056894B1110C944F06089599
:100B30000E94340688F09F5798F0B92F9927B75133
:100B4000B0F0E1F0660F771F881F991F1AF0BA9571
:100B5000C9F714C0B13091F00E944E06B1E008957B
:100B60000C944E06672F782F8827B85F39F0B93F6D
:100B7000CCF3869577956795B395D9F73EF4909524
:100B80008095709561957F4F8F4F9F4F0895E894A2
:100B900009C097FB3EF490958095709561957F4FC5
:100BA0008F4F9F4F9923A9F0F92F96E9BB27939573
:100BB000F695879577956795B795F111F8CFFAF483
:100BC000BB0F11F460FF1BC06F5F7F4F8F4F9F4FB4
:100BD00016C0882311F096E911C0772321F09EE812
:100BE000872F762F05C0662371F096E8862F70E078
:100BF00060E02AF09A95660F771F881FDAF7880F52
:100C00009695879597F9089597F99F6780E870E022
:100C100060E008959FEF80EC089500240A94161672
:100C2000170618060906089500240A9412161306DA
:100C3000140605060895092E0394000C11F4882368
:100C400052F0BB0F40F4BF2B11F460FF04C06F5F84
:100C50007F4F8F4F9F4F089557FD9058440F551F5A
:100C600059F05F3F71F04795880F97FB991F61F02E
:100C70009F3F79F087950895121613061406551FA5
:100C8000F2CF4695F1DF08C0161617061806991F11
:100C9000F1CF86957105610508940895E894BB2706
:100CA00066277727CB0197F908950E9468060C9470
:100CB0001B060E940D0638F00E94140620F09523B2
:100CC00011F00C9404060C940A0611240C944F069F
:100CD0000E942C0670F3959FC1F3950F50E0551FAD
:100CE000629FF001729FBB27F00DB11D639FAA2781
:100CF000F00DB11DAA1F649F6627B00DA11D661FD0
:100D0000829F2227B00DA11D621F739FB00DA11DF0
:100D1000621F839FA00D611D221F749F3327A00DAA
:100D2000611D231F849F600D211D822F762F6A2F46
:100D300011249F5750409AF0F1F088234AF0EE0FAB
:100D4000FF1FBB1F661F771F881F91505040A9F7D8
:100D50009E3F510580F00C9404060C944F065F3FB3
:100D6000E4F3983ED4F3869577956795B795F79514
:100D7000E7959F5FC1F7FE2B880F911D969587958C
:100D800097F90895991B79E004C0991F961708F008
:100D9000961B881F7A95C9F780950895A1E21A2EAF
:100DA000AA1BBB1BFD010DC0AA1FBB1FEE1FFF1F0F
:100DB000A217B307E407F50720F0A21BB30BE40B5F
:100DC000F50B661F771F881F991F1A9469F76095A6
:100DD0007095809590959B01AC01BD01CF01089560
:100DE000052E97FB16F400940FD057FD05D0D6DFE3
:100DF00007FC02D046F408C05095409530952195E7
:100E00003F4F4F4F5F4F0895909580957095619536
:100E10007F4F8F4F9F4F08950FD0A59F900DB49F88
:100E2000900DA49F800D911D11240895B7FFF4CF5C
:100E3000F3DF821B930B0895A29FB001B39FC00103
:100E4000A39F01D0B29F700D811D1124911D0895A3
:040E5000F894FFCF44
:100E5400302E0020252000FF00FB040705FD0814A8
:070E6400001CB6E4D49BE181
:100E6B0003FF0439300000803F0D00CD35000080BA
:100E7B003F0461D93A0A2820380C803835000080AD
:060E8B003F0F80E135007D
:00000001FF
