S00F0000706F6B75732D702E7372656346
S113000019C028C027C026C025C024C023C022C0D0
S113001088C020C01FC01EC01DC01CC01BC01AC089
S113002019C018C017C016C015C014C013C012C020
S113003011C010C011241FBECFEFCDBFDFE3DEBF60
S11300402EE3A0E0BEE301C01D92A530B207E1F7A4
S113005024D0DEC0D5CF8093033E9093043E6093BA
S1130060013E7093023E08952CE030E0A901461B46
S1130070570BBA014FEF5FE0FA0102C0F595E7951F
S11300806A95E2F7BF01281B390BCA0102C0959596
S113009087952A95E2F7DFDF0895E0E2F4E080E156
S11300A080838FE0809340048183E0E0FAE0108253
S11300B011821282138281E082872DE431E026A32B
S11300C037A380838387789401E010E0C1E0D0E017
S11300D080E1809327048091080480FD0EC0B8015C
S11300E0CE01C2DF21960F5F1F4F2AE684E091E024
S11300F0215080409040E1F700C0CD30D10541F758
S11301002AE684E091E0215080409040E1F700C06D
S11301102AE684E091E0215080409040E1F700C05D
S1130120D3CF1F920F920FB60F9211242F933F93A8
S11301304F935F936F937F938F939F93EF93FF936B
S11301408FE080934604E0E2F4E086838091003EF1
S11301509BEA899F912D11249695292F220F920FA6
S1130160282F291B30E02F5F3F4F41E050E0BA01B8
S113017002C0660F771F2A95E2F765838330C0F0CB
S113018091E090932504482F50E043505109440FC7
S1130190551F440F551F2091033E3091043E02C069
S11301A0359527954A95E2F72F702093450417C09B
S11301B08630A8F491E090932604482F50E0440F31
S11301C0551F440F551F2091013E3091023E02C03D
S11301D0359527954A95E2F72F70209345048F5F54
S11301E08093003E8A3110F01092003E81E08093AB
S11301F00B0AFF91EF919F918F917F916F915F9186
S11302004F913F912F910F900FBE0F901F90189513
S1070210F894FFCF8C
S9030000FC
