S00E0000706F6B7573302E73726563B4
S11300000C943E000C9448000C9448000C94480056
S11300100C9448000C9448000C9448000C9448003C
S11300200C9448000C9448000C9448000C9448002C
S11300300C9448000C9448000C9448000C9448001C
S11300400C9448000C9448000C9448000C9448000C
S11300500C9448000C9448000C9448000C944800FC
S11300600C9448000C9448000C9448000C944800EC
S11300700C9448000C9448000C94480011241FBEB2
S1130080CFEFCDBFDFE3DEBF0E944A000C948400B3
S11300900C940000E0E2F4E080E180838FE0809340
S11300A04004818360E0623058F581E08093270446
S11300B080E0833018F5E0E2F4E09EEE9683482F6A
S11300C050E04F5F5F4F21E030E002C0220F331F4A
S11300D04A95E2F72583E0E4F4E09FE09483A1E409
S11300E0B3E01197F1F700001482B5ED28E032E097
S11300F0B15020403040E1F78F5FDBCF6F5FD3CF4B
S10F010080E180932704CECFF894FFCF59
S9030000FC
