S0110000706F6B75732D6164302E73726563BF
S113000019C033C032C031C030C02FC02EC02DC083
S1130010BFC22BC02AC029C028C027C026C025C003
S113002024C069C322C021C020C01FC09CC21DC0FF
S11300301CC01BC011241FBECFEFCDBFDFE3DEBF4A
S11300401EE3A0E0BEE3ECE1FBE002C005900D92EC
S1130050A230B107D9F72EE3A2E0BEE301C01D929E
S1130060A731B207E1F7BDD14BC5CACF80930606CD
S11300706F3F31F06093A00085E08093020603C0D7
S113008085E180930206E0E0F6E081E083878087E3
S11300900895E0E0F6E081E08387808708950F9378
S11300A01F93F8940091133E1091143E2091153E35
S11300B03091163E41E0061717072807390708F064
S11300C040E07894842F1F910F910895F894109232
S11300D0133E1092143E1092153E1092163E7894E0
S11300E00895CF92DF92EF92FF92CF93DF93CDB733
S11300F0DEB72F97CDBFDEBFDC01CB01880F991F80
S1130100AA1FBB1F6C017D01CC0CDD1CEE1CFF1C67
S1130110CC0CDD1CEE1CFF1CC80ED91EEA1EFB1EF7
S1130120D5DF80910B0680FF66C0809106068111A1
S113013062C08AE0E4E0FBE8DE01119601900D92D2
S11301408A95E1F785E0EEE0FBE8DE011B9601907D
S11301500D928A95E1F78091100690911106809393
S11301600E3E90930F3E95DF80E08530E8F4E82F53
S1130170F0E0EE0FFF1F21E030E02C0F3D1FE20FF7
S1130180F31F20813181B9016054764040910E3EC5
S113019050910F3E4617570728F0205C394F24171B
S11301A0350710F48F5FE1CF853020F080E1809334
S11301B0063E09C0EBE0F0E0EC0FFD1FE80FF11D77
S11301C080818093063E8091063E80930D3E9091FF
S11301D0053E891302C0803111F41092043E9091BF
S11301E0043E9F3118F08093103E03C09F5F9093AC
S11301F0043E8093053E8091123E813011F41092AA
S1130200123E8091113E813011F41092113EC701CB
S1130210B60145DF811185CF2F96CDBFDEBFDF91BB
S1130220CF91FF90EF90DF90CF90089580930B3E95
S113023090930C3E6093093E70930A3E0895AB017F
S11302406D30710514F04CE050E06D30710564F4CC
S11302502CE030E0241B350B6FEF7FE002C0759576
S113026067952A95E2F702C06FEF7BE08D30910528
S113027064F42CE030E0281B390B8FEF9FE002C0C0
S1130280959587952A95E2F702C08FEF9BE0CEDF24
S113029008959091040895FFFCCF80930208089577
S11302A00F931F93CF938C01C0E0CF3F49F0F80127
S11302B0EC0FF11D8081882319F0EBDFCF5FF5CFC0
S11302C0CF911F910F910895AF92BF92CF92DF9279
S11302D0EF92FF920F931F93CF93DF93CDB7DEB7C7
S11302E02A97CDBFDEBF6B017C01042F992354F400
S11302F0F094E094D094C094C11CD11CE11CF11C76
S11303008DE2C7DF10E01930F4F4C701B6012AE02A
S113031030E040E050E0BCD3E1E0F0E0EC0FFD1F42
S1130320E10FF11D17FDFA95605D6083C22ED32E97
S1130330E42EF52E10162CF0C114D104E104F104BE
S113034011F01F5FE0CF0023F4F4C12E012E000C46
S1130350DD08202F332721950CF430955901C2165E
S1130360D3068CF483E19BE89BDFFF24F3942F2DC9
S113037030E0C5018C199D092817390724F480E35E
S113038088DFF394F4CF101614F41FEF100F112329
S1130390D4F0E12E012E000CFF08E1E0F0E0EC0FB8
S11303A0FD1FEE0DFF1D808174DF002354F4202F08
S11303B0332721950CF43095E216F30611F48EE2FE
S11303C068DF1150E4CF2A96CDBFDEBFDF91CF9115
S11303D01F910F91FF90EF90DF90CF90BF90AF905F
S11303E0089590E088ED84BF90936100A0E2B4E0AA
S11303F080E18C93E0E0F4E011E0128384E0808BF0
S11304008FE08093400411968C9302E0018388E08E
S1130410828BE0E0FAE0108211821282138212874A
S113042080ED97E086A397A310831387E0E0F2E0C2
S1130430818181608183C0E0D8E01D8283E08F8365
S1130440A09125110A2E000CBB0B20E03DE241E3F4
S113045051E03AD3DC01CB01072E7AE0B695A7959B
S1130460979587957A95D1F7702D935DAE4CBE4FD5
S1130470880F991FAA1FBB1F880F991FAA1FBB1F94
S1130480880F991FAA1FBB1F880F991FAA1FBB1F84
S1130490BC01CD01660F771F881F991F660F771F58
S11304A0881F991F45D220E030E046E958E49FD1E7
S11304B020E030E040E05FE32ED10BD268877987FB
S11304C080E48E831092A0000093A10083E88093BF
S11304D0000686E08093010685E080930206109270
S11304E00306109204061092050610920A06109252
S11304F00C06109316062FEF84E39CE021508040F5
S11305009040E1F700C0000078946FEF80E0AEDD2A
S1130510C1E0D0E08091103EBE0190E090DE2196D3
S1130520CC30D1052CF086E19BE8BADEC0E0D0E007
S113053060910E3E70910F3E80E090E040E0C4DE9A
S11305408AE19BE8ADDE60910D3E70E080E090E0D2
S113055040E0BADE88E19BE8A3DE6EE170E080E073
S113056090E0BFDDD7CF1F920F920FB60F921124E8
S11305708F93EF93FF93E0E0F8E0848180688483B5
S1130580FF91EF918F910F900FBE0F901F901895D0
S11305901F920F920FB60F9211242F933F934F93F4
S11305A05F936F937F938F939F93AF93BF93EF93D7
S11305B0FF938091133E9091143EA091153EB0910B
S11305C0163E0196A11DB11D8093133E9093143ED7
S11305D0A093153EB093163E81E08093123E809125
S11305E0033E8F5F8093033E9091003E9817C8F4BA
S11305F01092033E8091073E9091083E181619060A
S11306006CF48091073E9091083E01978093073ED9
S11306109093083E88E08093030403C088E08093AD
S113062002048FE080934604E0E2F4E08683809144
S1130630023E9BEA899F912D11249695292F220F22
S1130640920F282F291B30E02F5F3F4F41E050E0ED
S1130650BA0102C0660F771F2A95E2F765838330DB
S1130660B0F491E090932604482F50E0440F551FB6
S1130670440F551F2091093E30910A3E02C0359522
S113068027954A95E2F72F702093450419C08630C8
S1130690B8F491E090932504482F50E04350510959
S11306A0440F551F440F551F20910B3E30910C3EB3
S11306B002C0359527954A95E2F72F70209345049B
S11306C08F5F8093023E833310F01092023E81E0EC
S11306D080930B0AFF91EF91BF91AF919F918F91FE
S11306E07F916F915F914F913F912F910F900FBE2A
S11306F00F901F9018951F920F920FB60F9211240E
S11307008F9381E080930B068F910F900FBE0F9013
S11307101F9018955058BB27AA270E94A2030C9437
S1130720EC040E94DE0438F00E94E50420F039F461
S11307309F3F19F426F40C94DB040EF4E095E7FBD8
S11307400C94D504E92F0E94FD0458F3BA176207EC
S113075073078407950720F079F4A6F50C941F0518
S11307600EF4E0950B2EBA2FA02D0B01B9019001C8
S11307700C01CA01A0011124FF27591B99F0593F0C
S113078050F4503E68F11A16F040A22F232F342F54
S11307904427585FF3CF469537952795A795F040A2
S11307A05395C9F77EF41F16BA0B620B730B840BB7
S11307B0BAF09150A1F0FF0FBB1F661F771F881F6F
S11307C0C2F70EC0BA0F621F731F841F48F48795C7
S11307D077956795B795F7959E3F08F0B0CF9395B9
S11307E0880F08F09927EE0F9795879508950E9432
S11307F00B040C94EC040E94E50458F00E94DE04FF
S113080040F029F45F3F29F00C94D50451110C9465
S113081020050C94DB040E94FD0468F39923B1F3D2
S1130820552391F3951B550BBB27AA276217730712
S1130830840738F09F5F5F4F220F331F441FAA1FA6
S1130840A9F335D00E2E3AF0E0E832D09150504062
S1130850E695001CCAF72BD0FE2F29D0660F771F10
S1130860881FBB1F261737074807AB07B0E809F0F6
S1130870BB0B802DBF01FF2793585F4F3AF09E3F7B
S1130880510578F00C94D5040C9420055F3FE4F3F3
S1130890983ED4F3869577956795B795F7959F5FBE
S11308A0C9F7880F911D9695879597F90895E1E00A
S11308B0660F771F881FBB1F621773078407BA0769
S11308C020F0621B730B840BBA0BEE1F88F7E095C4
S11308D008950E94050588F09F5798F0B92F99272D
S11308E0B751B0F0E1F0660F771F881F991F1AF017
S11308F0BA95C9F714C0B13091F00E941F05B1E058
S113090008950C941F05672F782F8827B85F39F056
S1130910B93FCCF3869577956795B395D9F73EF4AF
S113092090958095709561957F4F8F4F9F4F089557
S1130930E89409C097FB3EF4909580957095619575
S11309407F4F8F4F9F4F9923A9F0F92F96E9BB272B
S11309509395F695879577956795B795F111F8CFA7
S1130960FAF4BB0F11F460FF1BC06F5F7F4F8F4F12
S11309709F4F16C0882311F096E911C0772321F008
S11309809EE8872F762F05C0662371F096E8862FA0
S113099070E060E02AF09A95660F771F881FDAF7F7
S11309A0880F9695879597F9089597F99F6780E83A
S11309B070E060E008959FEF80EC089500240A94AD
S11309C01616170618060906089500240A94121626
S11309D01306140605060895092E0394000C11F459
S11309E0882352F0BB0F40F4BF2B11F460FF04C006
S11309F06F5F7F4F8F4F9F4F089557FD9058440F5F
S1130A00551F59F05F3F71F04795880F97FB991F69
S1130A1061F09F3F79F08795089512161306140626
S1130A20551FF2CF4695F1DF08C0161617061806B3
S1130A30991FF1CF86957105610508940895E8948E
S1130A40BB2766277727CB0197F90895A1E21A2ED1
S1130A50AA1BBB1BFD010DC0AA1FBB1FEE1FFF1F5E
S1130A60A217B307E407F50720F0A21BB30BE40BAE
S1130A70F50B661F771F881F991F1A9469F76095F5
S1130A807095809590959B01AC01BD01CF010895AF
S1130A90052E97FB16F400940FD057FD05D0D6DF32
S1130AA007FC02D046F408C0509540953095219536
S1130AB03F4F4F4F5F4F0895909580957095619586
S1130AC07F4F8F4F9F4F0895B7FF04C003D0821B01
S1130AD0930B089509D0A59F900DB49F900DA49FEA
S1130AE0800D911D11240895A29FB001B39FC001F0
S1130AF0A39F01D0B29F700D811D1124911D0895F3
S1070B00F894FFCF93
S1130B044006C0A180C6C0D6BFF901020408003063
S10B0B142E000A00202F20002E
S1050B1C0400CF
S9030000FC
