S0100000706F6B75732D61642E73726563F0
S113000019C033C032C031C030C02FC02EC02DC083
S113001081C32BC02AC029C028C027C026C025C040
S113002024C02BC422C021C020C01FC008C31DC0CF
S11300301CC01BC011241FBECFEFCDBFDFE3DEBF4A
S11300401EE3A0E0BEE3E7EDFEE002C005900D92E2
S1130050A632B107D9F72EE3A6E2BEE301C01D9292
S1130060A93CB207E1F7E1D129C7CACF0F931F9387
S1130070F8940091C53E1091C63E2091C73E309140
S1130080C83E41E0061717072807390708F040E083
S11300907894842F1F910F910895F8941092C53E7F
S11300A01092C63E1092C73E1092C83E78940895AE
S11300B04F925F926F927F92AF92BF92CF92DF92F4
S11300C0EF92FF921F93CF93DF93DC01CB01880F54
S11300D0991FAA1FBB1F6C017D01CC0CDD1CEE1CFB
S11300E0FF1CCC0CDD1CEE1CFF1CC80ED91EEA1E26
S11300F0FB1ED3DF8091C43E813011F41092C43EC4
S11301008091033E9091043E8933904309F446C0A4
S113011080E0A0E0843060F5482F50E0FA01EE0F53
S1130120FF1FE153F14720813181F90174976091F8
S1130130033E7091043E6E177F0758F02C5E3F4FCC
S11301406091033E7091043E2617370720F490E037
S113015003C090E001C091E0992341F021E030E038
S113016002C0220F331F4A95E2F7A22B8F5FD2CF32
S113017089E390E38093033E9093043E80912B3E69
S1130180A81310922A3E80912A3E8F5F80932A3EC4
S1130190833010F0A093613EA0932B3E8091C33E28
S11301A0813011F41092C33E8091C23E8130D9F562
S11301B010E0183098F5C12FD0E0CC0FDD1FCC0F24
S11301C0DD1FCE018E55914C5C01FC018081918133
S11301D0A281B381FE01EE59F14C80839183A28305
S11301E0B383F5016081718182819381FE01EB5FAC
S11301F0F14C40805180628073800BD5A301920141
S113020096D5CE57D14C688379838A839B83F50135
S113021010821182128213821F5FCBCF1092C23ED2
S113022080E180932704C701B60120DF811162CFEA
S1130230DF91CF911F91FF90EF90DF90CF90BF900F
S1130240AF907F906F905F904F90089580935F3E42
S11302509093603E60935D3E70935E3E0895AB0163
S11302606D30710514F04CE050E06D30710564F4AC
S11302702CE030E0241B350B6FEF7FE002C0759556
S113028067952A95E2F702C06FEF7BE08D30910508
S113029064F42CE030E0281B390B8FEF9FE002C0A0
S11302A0959587952A95E2F702C08FEF9BE0CEDF04
S11302B008959091040895FFFCCF80930208089557
S11302C00F931F93CF938C01C0E0CF3F49F0F80107
S11302D0EC0FF11D8081882319F0EBDFCF5FF5CFA0
S11302E0CF911F910F910895AF92BF92CF92DF9259
S11302F0EF92FF920F931F93CF93DF93CDB7DEB7A7
S11303002A97CDBFDEBF6B017C01042F992354F4DF
S1130310F094E094D094C094C11CD11CE11CF11C55
S11303208DE2C7DF10E01930F4F4C701B6012AE00A
S113033030E040E050E08AD5E1E0F0E0EC0FFD1F52
S1130340E10FF11D17FDFA95605D6083C22ED32E77
S1130350E42EF52E10162CF0C114D104E104F1049E
S113036011F01F5FE0CF0023F4F4C12E012E000C26
S1130370DD08202F332721950CF430955901C2163E
S1130380D3068CF480EC9EE89BDFFF24F3942F2D9E
S113039030E0C5018C199D092817390724F480E33E
S11303A088DFF394F4CF101614F41FEF100F112309
S11303B0D4F0E12E012E000CFF08E1E0F0E0EC0F98
S11303C0FD1FEE0DFF1D808174DF002354F4202FE8
S11303D0332721950CF43095E216F30611F48EE2DE
S11303E068DF1150E4CF2A96CDBFDEBFDF91CF91F5
S11303F01F910F91FF90EF90DF90CF90BF90AF903F
S11304000895CF93DF93D42FC0E0CD1738F420E0C4
S113041030E040E251E48BD4CF5FF7CFD195C3D322
S11304204D2F62DFDF91CF91089590E088ED84BF76
S113043090936100A0E2B4E080E18C93E0E0F4E00A
S113044011E0128384E0808B8FE080934004119646
S11304508C9302E0018388E0828BE0E0FAE0108272
S1130460118212821382128780ED97E086A397A3EC
S113047010831387E0E0F2E0818181608183C0E032
S1130480D8E080E88D8383E080930708A09125114C
S11304900A2E000CBB0B20E03DE241E351E0F2D414
S11304A0DC01CB01072E7AE0B695A7959795879541
S11304B07A95D1F7702D935DAE4CBE4F880F991F7E
S11304C0AA1FBB1F880F991FAA1FBB1F880F991F44
S11304D0AA1FBB1F880F991FAA1FBB1FBC01CD01F8
S11304E0660F771F881F991F660F771F881F991F34
S11304F090D320E030E046E958E4E3D220E030E055
S113050040E05FE372D256D3609308087093090801
S11305108C8180688C8380EC809306081092A00004
S11305200093A100E0E0F6E083E8808386E0809316
S1130530010685E0809302061092030610920406D9
S1130540109205068FEF809306061093080610920A
S1130550090610930A0610930B0610920C061093CA
S1130560160678942FEF84E39CE02150804090405D
S1130570E1F700C0000085E5828310E0183CD0F468
S11305806AE070E080E090E093DDC091613ED0E0ED
S11305906091663E7091673E8091683E9091693E9D
S11305A020E832E040E050E02FD4BE01C90157DE1C
S11305B01F5FE4CF10E0183070F5612F70E080E029
S11305C090E040E091DE80E274DEC12FD0E0CC0FF9
S11305D0DD1FCC0FDD1FCE59D14C688179818A8112
S11305E09B8117D32DE030E04DEC55E3A0D320E000
S11305F030E048EC52E49BD341E003DF83EC9EE817
S11306005FDE688179818A819B8140E06DDE89E0CB
S113061050DE1F5FD0CF6091033E7091043E80E0B6
S113062090E040E061DE89E044DE6091613E70E08C
S113063080E090E040E058DE8AE03BDE9ECF1F92EF
S11306400F920FB60F9211242F933F934F935F9302
S11306506F937F938F939F93AF93BF93EF93FF9386
S1130660CF93DF931F92CDB7DEB760E070E08FEFDA
S11306709FE0ECDD80912D3E811130C080912E3EB3
S1130680811102C01092013E80912E3E8B3250F0B7
S11306908FEF8093013E80932E3E80912C3E8160AB
S11306A080932C3EE0912E3EF0E080910008E15DC5
S11306B0F14C808380912E3E8F5F80932E3EE0919B
S11306C02E3EF0E0E25DF14C8081803251F481E015
S11306D080932D3E8FEF8093013E03C080910008EC
S11306E08983E0E0F8E08481806884830F90DF915F
S11306F0CF91FF91EF91BF91AF919F918F917F9196
S11307006F915F914F913F912F910F900FBE0F907A
S11307101F9018951F920F920FB60F9211242F93CA
S11307203F934F935F936F937F938F939F93AF9375
S1130730BF93EF93FF938091C53E9091C63EA091E5
S1130740C73EB091C83E0196A11DB11D8093C53E20
S11307509093C63EA093C73EB093C83E81E0809379
S1130760C43E8091293E8F5F8093293E9091023E42
S11307709817C8F41092293E80915B3E90915C3E9C
S1130780181619066CF480915B3E90915C3E0197BB
S113079080935B3E90935C3E88E08093030403C0A7
S11307A088E0809302048FE080934604E0E2F4E062
S11307B086838091283E9BEA899F912D11249695EA
S11307C0292F220F920F282F291B30E02F5F3F4F34
S11307D041E050E0BA0102C0660F771F2A95E2F7A4
S11307E065838330B0F491E090932604482F50E061
S11307F0440F551F440F551F20915D3E30915E3EBE
S113080002C0359527954A95E2F72F702093450449
S113081019C08630B8F491E090932504482F50E035
S113082043505109440F551F440F551F20915F3EFB
S11308303091603E02C0359527954A95E2F72F70B6
S1130840209345048F5F8093283E833310F01092E9
S1130850283E81E080930B0AFF91EF91BF91AF9105
S11308609F918F917F916F915F914F913F912F91C4
S11308700F900FBE0F901F9018951F920F920FB6F6
S11308800F9211242F933F934F935F936F937F9312
S11308908F939F93EF93FF938091003E882339F0C9
S11308A081508093003E81E080930B068EC080913E
S11308B0273E813049F42091033E3091043E293390
S11308C0304321F090E003C090E001C091E099230F
S11308D041F020911006309111062093033E30938D
S11308E0043E9091C23E91116DC02091100630914A
S11308F01106E82FF0E0EE0FFF1FEE0FFF1FEE557D
S1130900F14C4081518162817381420F531F611DFB
S1130910711D40835183628373838F5F8093273E6D
S1130920883070F01092273E8091263E8F5F80932E
S1130930263E8A3028F01092263E81E08093C23E03
S113094082E08093003EE091273EF0E0E953F147D6
S11309508081803218F48093060634C08C3FD1F035
S113096028F48A3F29F18B3FE1F029C08E3F29F01A
S113097050F085E58093020625C085E08093020649
S11309801092A0001FC085E48093020680E180934A
S1130990A00018C085E48093020680E48093A00040
S11309A011C085E48093020680E28093A0000AC00F
S11309B085E48093020680E38093A00003C08FE166
S11309C08093060681E080930B06FF91EF919F913F
S11309D08F917F916F915F914F913F912F910F90E4
S11309E00FBE0F901F9018955058BB27AA270E943E
S11309F00C050C945D060E944F0638F00E945606C2
S1130A0020F039F49F3F19F426F40C944C060EF4AC
S1130A10E095E7FB0C944606E92F0E946E0658F316
S1130A20BA17620773078407950720F079F4A6F5CF
S1130A300C9490060EF4E0950B2EBA2FA02D0B010A
S1130A40B90190010C01CA01A0011124FF27591B0F
S1130A5099F0593F50F4503E68F11A16F040A22F15
S1130A60232F342F4427585FF3CF46953795279586
S1130A70A795F0405395C9F77EF41F16BA0B620B85
S1130A80730B840BBAF09150A1F0FF0FBB1F661FCC
S1130A90771F881FC2F70EC0BA0F621F731F841F0F
S1130AA048F4879577956795B795F7959E3F08F035
S1130AB0B0CF9395880F08F09927EE0F97958795F7
S1130AC008950E9475050C945D060E94560658F020
S1130AD00E944F0640F029F45F3F29F00C9446062B
S1130AE051110C9491060C944C060E946E0668F306
S1130AF09923B1F3552391F3951B550BBB27AA27D3
S1130B0062177307840738F09F5F5F4F220F331F0C
S1130B10441FAA1FA9F335D00E2E3AF0E0E832D0D4
S1130B2091505040E695001CCAF72BD0FE2F29D0D7
S1130B30660F771F881FBB1F261737074807AB07A9
S1130B40B0E809F0BB0B802DBF01FF2793585F4F1E
S1130B503AF09E3F510578F00C9446060C949106A9
S1130B605F3FE4F3983ED4F3869577956795B79500
S1130B70F7959F5FC9F7880F911D9695879597F90B
S1130B800895E1E0660F771F881FBB1F6217730784
S1130B908407BA0720F0621B730B840BBA0BEE1F99
S1130BA088F7E09508950E94DA056894B1110C94D1
S1130BB0910608950E94760688F09F5798F0B92F01
S1130BC09927B751B0F0E1F0660F771F881F991F7E
S1130BD01AF0BA95C9F714C0B13091F00E9490068A
S1130BE0B1E008950C949006672F782F8827B85F9A
S1130BF039F0B93FCCF3869577956795B395D9F7D6
S1130C003EF490958095709561957F4F8F4F9F4FDF
S1130C100895E89409C097FB3EF4909580957095EB
S1130C2061957F4F8F4F9F4F9923A9F0F92F96E934
S1130C30BB279395F695879577956795B795F111A9
S1130C40F8CFFAF4BB0F11F460FF1BC06F5F7F4F46
S1130C508F4F9F4F16C0882311F096E911C0772358
S1130C6021F09EE8872F762F05C0662371F096E861
S1130C70862F70E060E02AF09A95660F771F881F30
S1130C80DAF7880F9695879597F9089597F99F67EE
S1130C9080E870E060E008959FEF80EC0895002400
S1130CA00A941616170618060906089500240A94CD
S1130CB012161306140605060895092E0394000C53
S1130CC011F4882352F0BB0F40F4BF2B11F460FFE2
S1130CD004C06F5F7F4F8F4F9F4F089557FD90580B
S1130CE0440F551F59F05F3F71F04795880F97FBEC
S1130CF0991F61F09F3F79F08795089512161306A6
S1130D001406551FF2CF4695F1DF08C016161706D4
S1130D101806991FF1CF8695710561050894089509
S1130D20E894BB2766277727CB0197F908950E949B
S1130D30AA060C945D060E944F0638F00E945606DF
S1130D4020F0952311F00C9446060C944C061124C3
S1130D500C9491060E946E0670F3959FC1F3950F53
S1130D6050E0551F629FF001729FBB27F00DB11D2B
S1130D70639FAA27F00DB11DAA1F649F6627B00DBB
S1130D80A11D661F829F2227B00DA11D621F739FA4
S1130D90B00DA11D621F839FA00D611D221F749FB2
S1130DA03327A00D611D231F849F600D211D822FF9
S1130DB0762F6A2F11249F5750409AF0F1F0882320
S1130DC04AF0EE0FFF1FBB1F661F771F881F91504D
S1130DD05040A9F79E3F510580F00C9446060C94B0
S1130DE091065F3FE4F3983ED4F386957795679533
S1130DF0B795F795E7959F5FC1F7FE2B880F911D77
S1130E009695879597F90895A1E21A2EAA1BBB1B04
S1130E10FD010DC0AA1FBB1FEE1FFF1FA217B307C2
S1130E20E407F50720F0A21BB30BE40BF50B661FD8
S1130E30771F881F991F1A9469F76095709580959C
S1130E4090959B01AC01BD01CF010895052E97FB40
S1130E5016F400940FD057FD05D0D6DF07FC02D05E
S1130E6046F408C050954095309521953F4F4F4F1B
S1130E705F4F089590958095709561957F4F8F4F42
S1130E809F4F0895B7FF04C003D0821B930B0895AE
S1130E9009D0A59F900DB49F900DA49F800D911D26
S1130EA011240895A29FB001B39FC001A39F01D054
S1130EB0B29F700D811D1124911D0895F894FFCFE8
S1130EC0302E0020252000FF00FB040705FD081438
S10A0ED0001CB6E4D49BE111
S1130ED703FF0439300000803F0D00CD350000804A
S1130EE73F0461D93A0A2820380C8038350000803D
S1090EF73F0F80E135000D
S9030000FC
