:1000000019C020C01FC01EC01DC01CC01BC01AC00C
:1000100019C018C017C016C015C014C013C012C034
:1000200011C010C00FC00EC00DC00CC00BC00AC064
:1000300009C008C011241FBECFEFCDBFDFE3DEBF74
:100040006AD0B3C0DDCF1F93CF93DF93DC0190E084
:10005000933060F5E0E2F4E08FE08683292F30E012
:10006000E901219641E050E002C0440F551FCA95B6
:10007000E2F74583220F331F220F331FAD0102C069
:10008000569547952A95E2F79A012F70E0E4F4E03F
:100090002583C1E4D3E02197F1F700008683E1E4F2
:1000A000F3E03197F1F700009F5FD2CF20E02330DB
:1000B00070F5E0E2F4E03FE03683822F90E0DC016F
:1000C000119641E050E002C0440F551FAA95E2F797
:1000D000458341E04583880F991F880F991FAB0125
:1000E00002C0559547958A95E2F7CA018F70E0E402
:1000F000F4E0858381E493E00197F1F70000368313
:10010000C1E4D3E02197F1F700002F5FD0CFDF915A
:10011000CF911F910895E0E2F4E080E180838FE0C9
:1001200080934004818380E18093270400E010E005
:100130000C301105DCF4C0E0D0E0C430D1059CF4F3
:1001400060E078E0002E02C0759567950A94E2F7AA
:1001500081E090E0002E02C0880F991F0A94E2F718
:1001600072DF2196EACF0F5F1F4FE2CF0BE010E066
:100170001123CCF2C0E0D0E0C430D1059CF460E0A3
:1001800078E0002E02C0759567950A94E2F781E049
:1001900090E0002E02C0880F991F0A94E2F753DF07
:0E01A0002196EACF01501109E3CFF894FFCF6A
:00000001FF
