S0110000706F6B75732D6164302E73726563BF
S113000019C033C032C031C030C02FC02EC02DC083
S11300108DC22BC02AC029C028C027C026C025C035
S113002024C020C322C021C020C01FC06AC21DC07A
S11300301CC01BC011241FBECFEFCDBFDFE3DEBF4A
S11300401EE3A0E0BEE3E3E9FAE002C005900D92EE
S1130050A230B107D9F72EE3A2E0BEE301C01D929E
S1130060A031B207E1F785D10EC5CACF8093060649
S11300706F3F21F06093A00085E001C085E180938B
S1130080020681E080930B068093080608950F937F
S11300901F93F89400910C3E10910D3E20910E3E5A
S11300A030910F3E789441E0061717072807390767
S11300B008F040E0842F1F910F910895F894109256
S11300C00C3E10920D3E10920E3E10920F3E78940C
S11300D00895CF92DF92EF92FF929B01AC01AAE0C8
S11300E0B0E0B5D46B017C01E9DF80910B3E813037
S11300F011F410920B3E80910A3E813011F410925B
S11301000A3EC701B601C3DF8111EFCFFF90EF9024
S1130110DF90CF9008956D30710564F44CE050E0A9
S1130120461B570B2FEF3FE002C0359527954A95A4
S1130130E2F702C02FEF3BE08D30910564F44CE010
S113014050E0481B590B8FEF9FE002C095958795AF
S11301504A95E2F702C08FEF9BE08093083E9093AC
S1130160093E2093063E3093073E0895909104087B
S113017095FFFCCF8093020808950F931F93CF93AC
S1130180DF93EC018C0101501F4F8991882321F0EA
S1130190EDDFC017D107C9F7DF91CF911F910F9100
S11301A008954F925F926F927F928F929F92AF9237
S11301B0BF92CF92DF92EF92FF920F931F93CF9350
S11301C0DF93CDB7DEB72A97CDBFDEBF6B017C01CD
S11301D0042F97FF0AC0F094E094D094C094C11CFB
S11301E0D11CE11CF11C8DE2C1DFCE0101965C0142
S11301F010E04C018AE0482E512C612C712CC7016F
S1130200B601A301920107D4605DF50161935F011A
S113021069017A0110162CF0C114D104E104F1042F
S113022019F01F5F193059F707FF1DC0A12E012EC9
S1130230000CBB08802F992781950CF490957C01C4
S1130240A816B906A4F48AE89AE897DFDD24D394C3
S1130250EA18FB088D2D90E08E159F0544F480E389
S113026085DFD394F7CF002311F01FEF100FE02F99
S1130270FF27E1950CF4F0956F01E12E012E000C9F
S1130280FF08F401EE0DFF1D808170DF07FF05C03C
S1130290EC14FD0411F48EE269DF115070F72A9614
S11302A0CDBFDEBFDF91CF911F910F91FF90EF90F3
S11302B0DF90CF90BF90AF909F908F907F906F9082
S11302C05F904F9008954F925F926F927F92BF928A
S11302D0CF92DF92EF92FF920F931F93CF93DF930E
S11302E02A013B01809306060F3F21F00093A000F2
S11302F085E001C085E180930206890186E01695B8
S113030007958A95E1F7C0E0D0E0C12CD12C7601A5
S1130310BB24B394C017D107B9F0B0920B06B092C6
S1130320080680910B0680FD05C060E070E0CB01FB
S1130330D0DEF7CF8091100690911106C80ED91E19
S1130340E11CF11C2196E6CFC701B601A30192017D
S113035040D3CA01B901DF91CF911F910F91FF9052
S1130360EF90DF90CF90BF907F906F905F904F9011
S1130370089590E088ED84BF9093610080E18093BC
S11303802004C1E0C093020484E0809310048FE051
S11303908093400480932104D2E0D093010488E048
S11303A0809312041092000A1092010A1092020A19
S11303B01092030AC0930A0A80ED97E08093260AFC
S11303C09093270AC093000AC0930B0A80910102FC
S11303D08160809301021092050883E080930708EE
S11303E0A09125110A2E000CBB0B20E03DE241E355
S11303F051E037D3DC01CB012AE0B695A795979558
S113040087952A95D1F7935DAE4CBE4FBC01CD01C3
S113041036E0660F771F881F991F3A95D1F73FD2B0
S113042020E030E046E958E499D120E030E040E0B3
S11304305FE328D105D2609308087093090880E42B
S1130440809306081092A000D093A10083E88093C3
S1130450000686E08093010685E0809302061092F0
S11304600306109204061092050610920A061092D2
S11304700C06C09316062FEF84E39CE021508040C5
S11304809040E1F700C0000078946FEF80E0EEDD6B
S1130490C1E0D0E045E5842E912CA12CB12C0FEFC6
S11304A020E035E040E055E060E070E080E00BDF04
S11304B02B013C01A50194018CD269017A01BE0192
S11304C0C90129DE2196CC30D1052CF08DE89AE8BB
S11304D054DEC0E0D0E040E0C301B20162DE81E955
S11304E09AE84BDEB601DD0C880B990B40E059DE2F
S11304F08FE89AE842DE6EE170E080E090E0E9DDAA
S1130500CECF1F920F920FB60F9211248F93EF93B9
S1130510FF93E0E0F8E0848180688483FF91EF91A9
S11305208F910F900FBE0F901F9018951F920F92EE
S11305300FB60F9211242F933F934F935F936F93B2
S11305407F938F939F93AF93BF9380910C3E909131
S11305500D3EA0910E3EB0910F3E0196A11DB11D1E
S113056080930C3E90930D3EA0930E3EB0930F3EAD
S113057081E080930B3E8091033E8F5F8093033E26
S11305809091003E9817C8F41092033E8091043E67
S11305909091053E181619066CF48091043E9091D2
S11305A0053E01978093043E9093053E88E0809336
S11305B0030403C088E0809302048FE08093460420
S11305C0809326042091023E822F63E0F6D131E02D
S11305D0390F81E090E001C0880F3A95EAF78093E3
S11305E02504233060F481E08093260484E0289F6E
S11305F0A00111248091063E9091073E11C026303F
S1130600B8F481E080932504422F50E0435051090F
S1130610440F551F440F551F8091083E9091093E89
S113062002C0959587954A95E2F78F7080934504AB
S11306302F5F233318F42093023E02C01092023E2F
S113064081E080930B0ABF91AF919F918F917F912D
S11306506F915F914F913F912F910F900FBE0F902B
S11306601F9018951F920F920FB60F9211248F931B
S113067081E080930B068F910F900FBE0F901F9017
S113068018955058BB27AA270E9459030C94A30419
S11306900E94950438F00E949C0420F039F49F3F96
S11306A019F426F40C9492040EF4E095E7FB0C94F0
S11306B08C04E92F0E94B40458F3BA176207730735
S11306C08407950720F079F4A6F50C94D6040EF46B
S11306D0E0950B2EBA2FA02D0B01B90190010C014E
S11306E0CA01A0011124FF27591B99F0593F50F466
S11306F0503E68F11A16F040A22F232F342F4427BE
S1130700585FF3CF469537952795A795F0405395B5
S1130710C9F77EF41F16BA0B620B730B840BBAF085
S11307209150A1F0FF0FBB1F661F771F881FC2F7F0
S11307300EC0BA0F621F731F841F48F48795779504
S11307406795B795F7959E3F08F0B0CF9395880FBE
S113075008F09927EE0F9795879508950E94C20394
S11307600C94A3040E949C0458F00E94950440F049
S113077029F45F3F29F00C948C0451110C94D70494
S11307800C9492040E94B40468F39923B1F35523A2
S113079091F3951B550BBB27AA2762177307840790
S11307A038F09F5F5F4F220F331F441FAA1FA9F326
S11307B035D00E2E3AF0E0E832D091505040E69514
S11307C0001CCAF72BD0FE2F29D0660F771F881F75
S11307D0BB1F261737074807AB07B0E809F0BB0B68
S11307E0802DBF01FF2793585F4F3AF09E3F51057C
S11307F078F00C948C040C94D7045F3FE4F3983E97
S1130800D4F3869577956795B795F7959F5FC9F764
S1130810880F911D9695879597F90895E1E0660FE5
S1130820771F881FBB1F621773078407BA0720F05E
S1130830621B730B840BBA0BEE1F88F7E0950895C7
S11308400E94BC0488F09F5798F0B92F9927B7519C
S1130850B0F0E1F0660F771F881F991F1AF0BA9560
S1130860C9F714C0B13091F00E94D604B1E00895E4
S11308700C94D604672F782F8827B85F39F0B93FD6
S1130880CCF3869577956795B395D9F73EF4909513
S11308908095709561957F4F8F4F9F4F0895E89491
S11308A009C097FB3EF490958095709561957F4FB4
S11308B08F4F9F4F9923A9F0F92F96E9BB27939562
S11308C0F695879577956795B795F111F8CFFAF472
S11308D0BB0F11F460FF1BC06F5F7F4F8F4F9F4FA3
S11308E016C0882311F096E911C0772321F09EE801
S11308F0872F762F05C0662371F096E8862F70E067
S113090060E02AF09A95660F771F881FDAF7880F40
S11309109695879597F9089597F99F6780E870E011
S113092060E008959FEF80EC089500240A94161661
S1130930170618060906089500240A9412161306C9
S1130940140605060895092E0394000C11F4882357
S113095052F0BB0F40F4BF2B11F460FF04C06F5F73
S11309607F4F8F4F9F4F089557FD9058440F551F49
S113097059F05F3F71F04795880F97FB991F61F01D
S11309809F3F79F087950895121613061406551F94
S1130990F2CF4695F1DF08C0161617061806991F00
S11309A0F1CF86957105610508940895E894BB27F5
S11309B066277727CB0197F90895991B79E004C03E
S11309C0991F961708F0961B881F7A95C9F780958A
S11309D00895A1E21A2EAA1BBB1BFD010DC0AA1F7C
S11309E0BB1FEE1FFF1FA217B307E407F50720F094
S11309F0A21BB30BE40BF50B661F771F881F991F0F
S1130A001A9469F760957095809590959B01AC0157
S1130A10BD01CF010895052E97FB16F400940FD065
S1130A2057FD05D0D6DF07FC02D046F408C0509528
S1130A304095309521953F4F4F4F5F4F08959095C6
S1130A408095709561957F4F8F4F9F4F08950FD07C
S1130A50A59F900DB49F900DA49F800D911D11240E
S1130A600895B7FFF4CFF3DF821B930B0895A29F81
S1130A70B001B39FC001A39F01D0B29F700D811D2F
S10D0A801124911D0895F894FFCF8E
S10C0A8A302E000A00202F200088
S1050A93040059
S9030000FC
