S0100000706F6B75732D73312E7372656311
S113000019C033C032C031C030C02FC02EC02DC083
S113001077C12BC02AC029C028C027C026C025C04C
S113002024C023C022C021C020C01FC01EC01DC0C8
S11300301CC01BC011241FBECFEFCDBFDFE3DEBF4A
S11300401EE3A0E0BEE3EFE1F8E002C005900D92EC
S1130050A230B107D9F72EE3A2E0BEE301C01D929E
S1130060A231B207E1F7C4D0CBC3CACFCF93DF9399
S1130070EC0110920C3E10920D3E80910A3E8130AC
S113008039F410920A3E8091093E8F5F8093093EB5
S113009080910B3E813089F510920B3E80E1809374
S11300A027048091080480FD06C08091083E8823BF
S11300B021F080E003C080E001C081E08823C9F022
S11300C084E098E844D06091063E7091073E072E84
S11300D0000C880B990B4FD086E198E838D08091BA
S11300E0063E9091073E01968093063E9093073E0C
S11300F004C01092063E1092073ECE01880F991F4D
S1130100880F991F880F991F9E01220F331F820F9A
S1130110931F20910C3E30910D3E2817390708F4A7
S1130120ACCFDF91CF910895CF93C82F81E0809316
S1130130083E8091040885FD04C080E090E096DFCD
S1130140F8CFC09302081092083ECF9108950F9300
S11301501F93CF938C01C0E0CF3F49F0F801EC0F1F
S1130160F11D8081882319F0DFDFCF5FF5CFCF91B8
S11301701F910F9108951F93CF93DF93CDB7DEB7EF
S11301802B97CDBFDEBFFE0131962BE0DF011D9220
S11301902A95E9F710E01A30C0F42AE030E040E094
S11301A050E0F0D2E1E0F0E0EC0FFD1FE10FF11DB3
S11301B0605D6083622F732F842F952F6115710505
S11301C08105910511F01F5FE6CF1A3050F4E1E08C
S11301D0F0E0EC0FFD1FE10FF11D8081A5DF115050
S11301E0F4CF2B96CDBFDEBFDF91CF911F91089541
S11301F0E0E2F4E080E1808398E0909310048FE0E3
S1130200809340048183E0E0FAE01082118212823C
S1130210138281E082872DE431E026A337A3808313
S11302208387E0E0F2E0818181608183E0E0F4E0B3
S113023082E08183858390931204C0E0D8E01D821C
S113024080EC8E8383E08F83A09125110A2E000C0D
S1130250BB0B25ED3CED42E350E0B6D2DC01CB0113
S1130260072E7AE0B695A795979587957A95D1F755
S1130270702D8B529342AD4CBF4F880F991FAA1F0C
S1130280BB1F880F991FAA1FBB1F880F991FAA1F86
S1130290BB1F880F991FAA1FBB1FBC01CD01660F8E
S11302A0771F881F991F660F771F881F991FDCD13E
S11302B020E030E046E958E436D120E030E040E088
S11302C05FE3C5D0A2D16887798780E28C83789474
S11302D08AE198E83CDFC0E0D0E0C431D1056CF499
S11302E0BE010D2E000C880B990B45DF80E21CDF4C
S11302F084EF91E0BBDE2196F0CF8AE015DFE8CFF2
S11303001F920F920FB60F9211242F933F934F9386
S11303105F936F937F938F939F93EF93FF938FE0FC
S113032080934604E0E2F4E086838091053E9BEAF4
S1130330899F912D11249695292F220F920F282FF2
S1130340291B30E02F5F3F4F41E050E0BA0102C06B
S1130350660F771F2A95E2F765838330C0F091E03A
S113036090932504482F50E043505109440F551FE2
S1130370440F551F2091103E3091113E02C0359517
S113038027954A95E2F72F702093450417C08630CD
S1130390A8F491E090932604482F50E0440F551F91
S11303A0440F551F20910E3E30910F3E02C03595EB
S11303B027954A95E2F72F70209345048F5F809329
S11303C0053E90E02091003E30E02A5F3F4F281721
S11303D0390714F41092053E80910C3E90910D3E25
S11303E0019680930C3E90930D3E8091033E909134
S11303F0043E01968093033E9093043E81319742DC
S11304003CF01092033E1092043E81E080930B3E38
S11304108091023E8F5F8093023E8B3028F01092D1
S1130420023E81E080930A3E81E080930B0AFF91B3
S1130430EF919F918F917F916F915F914F913F9138
S11304402F910F900FBE0F901F9018955058BB27F7
S1130450AA270E943E020C9488030E947A0338F073
S11304600E94810320F039F49F3F19F426F40C9480
S113047077030EF4E095E7FB0C947103E92F0E94D7
S1130480990358F3BA17620773078407950720F096
S113049079F4A6F50C94BB030EF4E0950B2EBA2F59
S11304A0A02D0B01B90190010C01CA01A001112476
S11304B0FF27591B99F0593F50F4503E68F11A1622
S11304C0F040A22F232F342F4427585FF3CF4695B3
S11304D037952795A795F0405395C9F77EF41F16D5
S11304E0BA0B620B730B840BBAF09150A1F0FF0F9F
S11304F0BB1F661F771F881FC2F70EC0BA0F621F8B
S1130500731F841F48F4879577956795B795F7957A
S11305109E3F08F0B0CF9395880F08F09927EE0F0F
S11305209795879508950E94A7020C9488030E94CA
S1130530810358F00E947A0340F029F45F3F29F0C8
S11305400C94710351110C94BC030C9477030E9416
S1130550990368F39923B1F3552391F3951B550B34
S1130560BB27AA2762177307840738F09F5F5F4F82
S1130570220F331F441FAA1FA9F335D00E2E3AF0C1
S1130580E0E832D091505040E695001CCAF72BD0D9
S1130590FE2F29D0660F771F881FBB1F261737072A
S11305A04807AB07B0E809F0BB0B802DBF01FF275C
S11305B093585F4F3AF09E3F510578F00C947103C5
S11305C00C94BC035F3FE4F3983ED4F3869577958F
S11305D06795B795F7959F5FC9F7880F911D969515
S11305E0879597F90895E1E0660F771F881FBB1F71
S11305F0621773078407BA0720F0621B730B840B1E
S1130600BA0BEE1F88F7E09508950E94A10388F0C5
S11306109F5798F0B92F9927B751B0F0E1F0660FC2
S1130620771F881F991F1AF0BA95C9F714C0B13003
S113063091F00E94BB03B1E008950C94BB03672FB3
S1130640782F8827B85F39F0B93FCCF38695779532
S11306506795B395D9F73EF490958095709561951B
S11306607F4F8F4F9F4F0895E89409C097FB3EF446
S113067090958095709561957F4F8F4F9F4F9923EB
S1130680A9F0F92F96E9BB279395F6958795779569
S11306906795B795F111F8CFFAF4BB0F11F460FF29
S11306A01BC06F5F7F4F8F4F9F4F16C0882311F081
S11306B096E911C0772321F09EE8872F762F05C095
S11306C0662371F096E8862F70E060E02AF09A9530
S11306D0660F771F881FDAF7880F9695879597F925
S11306E0089597F99F6780E870E060E008959FEFB0
S11306F080EC089500240A941616170618060906B5
S1130700089500240A941216130614060506089583
S1130710092E0394000C11F4882352F0BB0F40F40B
S1130720BF2B11F460FF04C06F5F7F4F8F4F9F4F4B
S1130730089557FD9058440F551F59F05F3F71F0CD
S11307404795880F97FB991F61F09F3F79F0879534
S11307500895121613061406551FF2CF4695F1DFBD
S113076008C0161617061806991FF1CF869571054D
S1130770610508940895E894BB2766277727CB0181
S113078097F90895A1E21A2EAA1BBB1BFD010DC007
S1130790AA1FBB1FEE1FFF1FA217B307E407F5072D
S11307A020F0A21BB30BE40BF50B661F771F881F09
S11307B0991F1A9469F760957095809590959B019F
S11307C0AC01BD01CF010895B7FF04C003D0821B63
S11307D0930B089509D0A59F900DB49F900DA49FED
S11307E0800D911D11240895A29FB001B39FC001F3
S11307F0A39F01D0B29F700D811D1124911D0895F6
S1070800F894FFCF96
S1130804546C616369746B6F20746C6163656E6F9F
S10E0814200020730A006262620A00E8
S105081F1400BF
S9030000FC
