:100000009FC0C3C0C2C0C1C0C0C0BFC0BEC0BDC011
:100010000FC2BBC0BAC0B9C0B8C0B7C0B6C0B5C0C7
:10002000B4C0B3C0B2C0B1C0B0C0AFC0AEC0ADC04C
:10003000ACC0ABC0696E6600494E46006E616E0092
:100040004E414E0000407A10F35A00A0724E18093B
:100050000010A5D4E80000E87648170000E40B542F
:10006000020000CA9A3B000000E1F50500008096FE
:100070009800000040420F000000A0860100000030
:10008000102700000000E8030000000064000000EA
:1000900000000A00000000000100000000002C76B3
:1000A000D888DC674F0823DFC1DFAE59E1B1B796CE
:1000B000E5E3E453C63AE651997696E8E6C284262B
:1000C000EB898C9B62ED407C6FFCEFBC9C9F40F207
:1000D000BAA56FA5F490055A2AF75C936B6CF96783
:1000E0006DC11BFCE0E40D47FEF520E6B500D0ED48
:1000F000902E0300943577050080841E08000020B0
:100100004E0A000000C80C333333330F986E12834D
:100110001141EF8D2114893BE65516CFFEE6DB1821
:10012000D1844B381BF77C1D901DA4BBE4242032E6
:1001300084725E228100C9F124ECA1E53D27A3026F
:1001400011241FBECFEFCDBFDFE3DEBF1EE3A0E073
:10015000BEE3EDECFAE102C005900D92A830B107C4
:10016000D9F72EE3A8E0BEE301C01D92A632B20784
:10017000E1F710E0C0EAD0E003C02197FE013CD8CF
:10018000CF39D107D1F749D054CB3ACFEF92FF9274
:100190000F931F93CF93DF938C01C0E0D0E0809149
:1001A000123E813041F41092123E21968091253EFC
:1001B0008F5F8093253E8091133E8130F9F4109239
:1001C000133E8091080480FD23C08091243E81115C
:1001D0001FC0E0900C3EF0900D3E80E498E9FAD10B
:1001E000C701ACD282E598E9F5D180910C3E90919F
:1001F0000D3E019680930C3E90930D3EC017D107A3
:1002000070F2DF91CF911F910F91FF90EF900895C1
:1002100010920C3E10920D3EF1CFCF93DF93CDB7ED
:10022000DEB76E97CDBFDEBF80E18093200490E003
:1002300088ED84BF9093610008E0009310048FE084
:1002400080934004809321041092000A1092010AC6
:100250001092020A1092030A11E010930A0A80ED2C
:1002600097E08093260A9093270A1093000A109330
:100270000B0A8091010281608093010282E08093E9
:10028000010480930504009312041092050880EC89
:100290008093060883E080930708A09125110A2E19
:1002A000000CBB0B20E03DE241E351E09FD7DC01B5
:1002B000CB012AE0B695A795979587952A95D1F712
:1002C000935DAE4CBE4FBC01CD0136E0660F771F8B
:1002D000881F991F3A95D1F756D620E030E046E9BD
:1002E00058E4B0D520E030E040E05FE33FD51CD6D5
:1002F000609308087093090880E28093040878945A
:1003000086E598E953D185EC98E950D10093023EF7
:100310001093033E86EF98E95DD10FEF21E045E1B0
:1003200059E96EE1CE0101964BD2182F80931E3E03
:1003300089E199E94FD1CE01019696D18FE199E9F2
:1003400049D1CE01019646D187E299E943D1812F67
:100350008FD180E218D18091063E80931F3E853672
:1003600079F44EE26EE1CE01019676D36B017C0109
:100370008091053E8093203E8091233E8093213ED4
:1003800010911F3EB0901E3E8EE299E923D100915C
:10039000033E2091023E4091013EC701B601D3D1F8
:1003A00087E299E917D18B2D63D189E399E912D1BD
:1003B000812FE9D08AE0E7D01091203E812F877FFE
:1003C000853699F18DE399E905D1812FDCD088E557
:1003D00099E900D18AE0D7D088E699E9FBD08AE094
:1003E000D2D010E08091223E181768F48FEFCBD165
:1003F00080911E3E8F5F80931E3E8091063E843723
:1004000011F01F5FEFCF1091063E10931F3E009139
:10041000213E82E899E9DED0802F2AD189E399E94B
:10042000D9D0812FB0D08AE0AED08AE0ACD072CFE4
:100430001F920F920FB60F9211242F933F934F9359
:100440005F936F937F938F939F938FE08093460486
:100450008093260420910B3E822F63E08FD631E0FB
:10046000390F81E090E001C0880F3A95EAF7809358
:1004700025048DEF820F833080F481E08093250482
:10048000422F50E043505109440F551F440F551F50
:100490008091103E9091113E0DC0263098F481E07D
:1004A0008093260484E0289FA001112480910E3EB1
:1004B00090910F3E02C0969587954A95E2F78F700E
:1004C000809345042F5F20930B3E822F90E0209174
:1004D000003E30E02A5F3F4F2817390714F410928E
:1004E0000B3E8091093E90910A3E0196813127E2B0
:1004F00092072CF48093093E90930A3E07C0109215
:10050000093E10920A3E81E08093133E8091083E9E
:100510008F5F8B3018F48093083E05C01092083E20
:1005200081E08093123E81E080930B0A9F918F912E
:100530007F916F915F914F913F912F910F900FBEDF
:100540000F901F90189583E0E6E3F8E9A4E1BEE37D
:1005500001900D928A95E1F787E0E7E1FEE3DF0184
:100560001D928A95E9F7E4E1FEE38FEF828780919F
:10057000063E83878091053E84878091233E858750
:100580008EEF86870895CF93C82F81E08093243E15
:100590008091040885FD04C080E090E0F7DDF8CF8D
:1005A000C09302081092243ECF9108950F931F9399
:1005B000CF93DF93EC018C0101501F4F8991882369
:1005C00021F0E1DFC017D107C9F7DF91CF911F916B
:1005D0000F910895EBCF8F929F92AF92BF92CF92DF
:1005E000DF92EF92FF921F93CF93DF93CDB7DEB7E9
:1005F0002B97CDBFDEBF9E012F5F3F4F79012BE0D0
:10060000F70111922A95E9F7670110E02AE0822E9E
:10061000912CA12CB12CA5019401BCD5605DF601F3
:1006200061936F01B901CA016115710581059105D9
:1006300021F01F5F1A3079F708C0F701E10FF11DB3
:100640008081A1DF11501A30C0F32B96CDBFDEBFE1
:10065000DF91CF911F91FF90EF90DF90CF90BF90EF
:10066000AF909F908F900895BC0180E090E0B3CF51
:10067000682F70E080E090E0AECFCF92DF92EF92F3
:10068000FF9297FF0BC06B017C018DE27CDF662738
:100690007727CB016C197D098E099F09FF90EF9098
:1006A000DF90CF9098CF0F931F93CF93DF93EC0100
:1006B0008B018AE899E97ADFC80178DF80E999E956
:1006C00075DF8881D5DF89E999E970DF8981D0DF1D
:1006D00083EA99E96BDF8A81CBDF8CEA99E966DFEF
:1006E0008B81C6DF85EB99E961DF6C817D818E812D
:1006F0009F81C3DF89EB99E959DF688579858A8510
:100700009B8569DF89E399E951DF6C857D858E855D
:100710009F85B3DF8DEB99E949DF8091053E33DF9B
:100720008FEC99E943DF8091233EA2DF89E22BDF42
:100730008AE0DF91CF911F910F9125CFBC01990FD6
:10074000880B990B9ACF0F931F93CF93DF93CDB75D
:10075000DEB76497CDBFDEBF011105C08E010F5F0C
:100760001F4FE1D505C0042FAE014F5F5F4F56D537
:10077000CE0101961BDF6496CDBFDEBFDF91CF9126
:100780001F910F910895CF93C82F1092253E80910D
:10079000040887FD0EC080E090E0F8DC8091253EE3
:1007A0008C17A8F3CC2399F384E78093063E8FEF50
:1007B00005C082E78093063E80910008CF9108959E
:1007C000AF92BF92CF92DF92EF92FF920F931F935F
:1007D000CF93DF93D62F5A01122F7C01C0E06A011C
:1007E0008AE0C80ED11CCD1759F1C11104C01123E4
:1007F00011F080E001C0802FC6DFF70181937F01F7
:10080000F50120ED280F91919923A1F03FEF390FC9
:10081000323048F42A3058F0913039F08B3239F0C8
:100820008D3229F002C0891302C085E60AC0EC159A
:10083000FD0549F78091063E823729F4CF5FD3CF7B
:1008400082E68093063E8C2FDF91CF911F910F910E
:10085000FF90EF90DF90CF90BF90AF9008950F93EF
:100860001F93CF93DF93EC01FC0120E0261731F1B9
:100870009191DA018C91981721F09923F9F02F5F6B
:10088000F5CF9923D9F090E0022F10E070E0A92F66
:10089000B0E0F801EA0FFB1FE617F7077CF4A40F9E
:1008A000B51F8C91811103C0822F890F08C0EC0FF6
:1008B000FD1F3081831302C09F5FE9CF8FEFDF916F
:1008C000CF911F910F910895FC0190E0961749F088
:1008D0008191841721F0882321F09F5FF7CF892F22
:1008E00008958FEF08958F929F92AF92BF92CF920B
:1008F000DF92EF92FF920F931F93CF93DF938C01C0
:10090000C62EEA0185E68093053E1092233ED090E4
:10091000043E812C912C5401E090233EEC1408F00D
:100920006CC0F801EE0DF11DF080209719F4FD1454
:1009300009F463C0FF2009F460C04F2D65E0CE01CB
:10094000C3DF8F3F09F059C080ED8F0D8A30A8F0CA
:100950008DED99E92BDE8091233E8ADE89EF99E9BE
:1009600025DE8F2D10DE8CEF99E920DE8F2D80DEC5
:100970008FEF99E91BDE8EE627C08AE9881689E9A0
:100980009806A80689E1B80650F489E98816980601
:10099000A80689E1B806D9F486E38F15C0F480E192
:1009A0009AE904DEC501B40116DE88E299E9FEDDAC
:1009B0008091233E5DDE8DE29AE9F8DD8F2DE3DD47
:1009C00082EC98E9F3DD86E78093053E16C0AAE045
:1009D000B0E0A501940100D44F2D50E09A012053BE
:1009E00031094901330FAA08BB08860E971EA81EBD
:1009F000B91EE394E092233E8FCFC501B401DF918D
:100A0000CF911F910F91FF90EF90DF90CF90BF900B
:100A1000AF909F908F900895FC0120812D3281F43A
:100A20006150019660DF2091233E2F5F2093233E8B
:100A300090958095709561957F4F8F4F9F4F08954A
:100A40002B3249F4615001964EDF2091233E2F5FF7
:100A50002093233E089547CF4F925F926F927F92EB
:100A60008F929F92AF92BF92CF92DF92EF92FF92BE
:100A70000F931F93CF93DF93CDB7DEB76997CDBFA9
:100A8000DEBF7C01C62E142F69831A821B821C8252
:100A90001D821E821F82188619861A861B861C8656
:100AA0001D861E861F86188A85E68093053E46E6CB
:100AB0005AE9C701D4DE882309F435C14BE65AE967
:100AC0006C2DC701CCDE882309F432C14AE65AE90D
:100AD0006C2DC701C4DE882309F42AC14FE65AE908
:100AE0006C2DC701BCDE882309F427C185E0E8EC42
:100AF000FAE9DE01519601900D928A95E1F7198B82
:100B0000AE014F5E5F4F6C2DC70186DF6E8B7F8B12
:100B1000888F998F8091053E853619F064E77AE9D0
:100B20003CC01091233EF701E10FF11D80818E3210
:100B3000A9F41F5F6C2D611B49EC5AE9C701810FB5
:100B4000911DD1DE4B015C018091053E853619F087
:100B500063E87AE922C00091233E04C0812C912CE5
:100B6000540100E0D090233ED10EF701ED0DF11DB0
:100B700080818F7D8534A9F4D3946C2D6D1940E06C
:100B800050E0C7018D0D911D47DF2B013C01809185
:100B9000053E853649F062E97AE9CE01019683DDAA
:100BA000C2C0412C512C32018091233ED80ED092EC
:100BB000233E82E999E9FADC8C2D5ADD85EB99E92F
:100BC000F5DC6E897F89888D998D57DD89EB99E9F0
:100BD000EDDCC501B401FFDC89E399E9E7DCC30181
:100BE000B2014BDDF70180818D3239F4C12CD12C5B
:100BF00040E8E42E4FEBF42E06C0C12CD12C30E897
:100C0000E32E3FE3F32E10E0011759F020E030E02F
:100C100040E251E4C701B60144D26B017C011F5F81
:100C2000F3CFC501B401AFD1A70196010BD14B01A0
:100C30005C016E897F89888D998DA7D19B01AC015C
:100C4000C501B40193D04B015C018CE59AE9AEDC9F
:100C5000802F0EDD80E69AE9A9DC00E023E040E089
:100C6000C701B60170DD81EA9AE9A0DC27E040E027
:100C7000C501B40168DD8AE086DCD301C20186507B
:100C80009F4FAF4FBF4F853F9140A105B10548F041
:100C900067EA7AE9CE01019606DD85E78093053E95
:100CA00042C0042D77FE09C001952DEC422E2CEC9C
:100CB000522E652C2DE3722E06C0412C512C90E251
:100CC000692E91E4792EC12CD12C80E8E82E8FE397
:100CD000F82E10E0101749F0A3019201C701B601E8
:100CE000E0D16B017C011F5FF5CF8DE59AE95EDCF9
:100CF000812FBEDC8CEB9AE959DC00E023E040E078
:100D0000C301B20120DD81EC9AE950DC23E040E030
:100D1000C701B60118DD8AE036DCA5019401C701E0
:100D2000B601BFD10EC060E070E080EC9FE709C063
:100D300060E070E080E89FE704C060E070E080E879
:100D40009FEF6996CDBFDEBFDF91CF911F910F91CD
:100D5000FF90EF90DF90CF90BF90AF909F908F90DB
:100D60007F906F905F904F9008955058BB27AA27AF
:100D70000E94CD060C9417080E94090838F00E94C2
:100D8000100820F039F49F3F19F426F40C9406085B
:100D90000EF4E095E7FB0C940008E92F0E94280868
:100DA00058F3BA17620773078407950720F079F4A0
:100DB000A6F50C944A080EF4E0950B2EBA2FA02D40
:100DC0000B01B90190010C01CA01A0011124FF27F8
:100DD000591B99F0593F50F4503E68F11A16F040F3
:100DE000A22F232F342F4427585FF3CF46953795F2
:100DF0002795A795F0405395C9F77EF41F16BA0BB7
:100E0000620B730B840BBAF09150A1F0FF0FBB1F64
:100E1000661F771F881FC2F70EC0BA0F621F731FAD
:100E2000841F48F4879577956795B795F7959E3F0A
:100E300008F0B0CF9395880F08F09927EE0F97959B
:100E4000879508950E9436070C9417080E94100891
:100E500058F00E94090840F029F45F3F29F00C94F3
:100E6000000851110C944B080C9406080E942808A5
:100E700068F39923B1F3552391F3951B550BBB27C9
:100E8000AA2762177307840738F09F5F5F4F220F0E
:100E9000331F441FAA1FA9F335D00E2E3AF0E0E805
:100EA00032D091505040E695001CCAF72BD0FE2F4F
:100EB00029D0660F771F881FBB1F261737074807E3
:100EC000AB07B0E809F0BB0B802DBF01FF2793589B
:100ED0005F4F3AF09E3F510578F00C9400080C9457
:100EE0004B085F3FE4F3983ED4F38695779567957A
:100EF000B795F7959F5FC9F7880F911D96958795D0
:100F000097F90895E1E0660F771F881FBB1F6217EE
:100F100073078407BA0720F0621B730B840BBA0BAC
:100F2000EE1F88F7E09508950E94300888F09F57DB
:100F300098F0B92F9927B751B0F0E1F0660F771FFD
:100F4000881F991F1AF0BA95C9F714C0B13091F0F3
:100F50000E944A08B1E008950C944A08672F782F40
:100F60008827B85F39F0B93FCCF3869577956795B8
:100F7000B395D9F73EF490958095709561957F4F24
:100F80008F4F9F4F0895E89409C097FB3EF49095CA
:100F90008095709561957F4F8F4F9F4F9923A9F052
:100FA000F92F96E9BB279395F695879577956795E1
:100FB000B795F111F8CFFAF4BB0F11F460FF1BC025
:100FC0006F5F7F4F8F4F9F4F16C0882311F096E9B8
:100FD00011C0772321F09EE8872F762F05C0662366
:100FE00071F096E8862F70E060E02AF09A95660F1F
:100FF000771F881FDAF7880F9695879597F90895D8
:1010000097F99F6780E870E060E008959FEF80ECBB
:10101000089500240A94161617061806090608955E
:1010200000240A9412161306140605060895092EC4
:101030000394000C11F4882352F0BB0F40F4BF2B33
:1010400011F460FF04C06F5F7F4F8F4F9F4F089573
:1010500057FD9058440F551F59F05F3F71F0479569
:10106000880F97FB991F61F09F3F79F0879508954E
:10107000121613061406551FF2CF4695F1DF08C06D
:10108000161617061806991FF1CF8695710561058A
:1010900008940895E894BB2766277727CB0197F932
:1010A00008950E9464080C9417080E94090838F0FB
:1010B0000E94100820F0952311F00C9400080C9465
:1010C000060811240C944B080E94280870F3959F81
:1010D000C1F3950F50E0551F629FF001729FBB272F
:1010E000F00DB11D639FAA27F00DB11DAA1F649FCB
:1010F0006627B00DA11D661F829F2227B00DA11D7E
:10110000621F739FB00DA11D621F839FA00D611D03
:10111000221F749F3327A00D611D231F849F600D24
:10112000211D822F762F6A2F11249F5750409AF04D
:10113000F1F088234AF0EE0FFF1FBB1F661F771FD9
:10114000881F91505040A9F79E3F510580F00C94A4
:1011500000080C944B085F3FE4F3983ED4F3869567
:1011600077956795B795F795E7959F5FC1F7FE2B44
:10117000880F911D9695879597F90895991B79E0A9
:1011800004C0991F961708F0961B881F7A95C9F717
:1011900080950895A1E21A2EAA1BBB1BFD010DC06C
:1011A000AA1FBB1FEE1FFF1FA217B307E407F50717
:1011B00020F0A21BB30BE40BF50B661F771F881FF3
:1011C000991F1A9469F760957095809590959B0189
:1011D000AC01BD01CF01089515D0A59F900DB49F1E
:1011E000900DA49F800D911D11240895B7FFF4CF99
:1011F000F3DF821B930B0895EE0FFF1F0590F49110
:10120000E02D0994A29FB001B39FC001A39F01D01C
:10121000B29F700D811D1124911D0895CF92DF9210
:10122000FF920F931F93CF93DF93EA01F02E122FBB
:10123000283008F017E000E0212FAE0193D098810C
:10124000292F2870DE0190FF06C0211104C01196DD
:101250002DE228830CC0F1FE03C011963BE204C0CE
:10126000F0FE03C0119630E23883211105C092FFD1
:101270000CC064E370E002C06CE370E0F2FE02C0F8
:101280006C5F7F4FCD0146D145C0FD01319629816C
:101290002C93213309F09F7E1123B9F0AE014E5FEC
:1012A0005F4F6F01312F2EE2DA016D91AD01D60152
:1012B0002D936D013150262FB9F71150DF01A10F89
:1012C000B11DFD01329611966C93F2FC02C025E629
:1012D00001C025E42083DF01129687FF04C09DE250
:1012E000918381950AC0811106C094FF04C09DE2DC
:1012F000918390E308C09BE2918390E38A301CF0D5
:101300009F5F8A50FBCF9C93805D11968C931197C1
:1013100012961C92CE01DF91CF911F910F91FF90F9
:10132000DF90CF900895EF920F931F93CF93DF93A9
:10133000E80147FD02C034E001C034E1042E000C96
:10134000550B57FF03C0519541955109E32E022FCC
:10135000242FAE01E6D0CE01DF91CF911F910F91E6
:10136000EF900895283008F027E03327DA01990F2D
:10137000311D87FD916000966105710539F4326079
:101380002E5F3D9330E32A95E1F708959F3F30F0BB
:1013900080387105610509F03C5F3C5F3D939130F9
:1013A00008F08068911DDF93CF931F930F93FF92F6
:1013B000EF92192F987F9695E92F96959695E90FBC
:1013C000FF27E256FF4F99273327EE24FF24A7017A
:1013D000E70105900894079428F4360FE71EF81EDD
:1013E000491F511D660F771F881F991F0694A1F78B
:1013F0000590079428F4E70EF81E491F561FC11DDB
:10140000770F881F991F661F0694A1F70590079410
:1014100028F4F80E491F561FC71FD11D880F991FAA
:10142000661F771F0694A1F70590079420F4490FD3
:10143000561FC71FD81F990F661F771F881F069456
:10144000A9F784911095177041F0D695C7955795D7
:101450004795F794E7941A95C1F7E4E4F0E06894AF
:101460001590159135916591959105907FE2739551
:10147000E118F10A430B560BC90BD009C0F7E10C78
:10148000F11E431F561FC91FD01D7EF4703311F487
:101490008A95E6CFE894015030F0080F0AF400274F
:1014A000021708F4202F2395022F7A3328F079E3CE
:1014B0007D932A95E9F710C07D932A9589F60694C5
:1014C00097956795379517951794E118F10A430B8F
:1014D000560BC90BD00998F023957E9173957A33FA
:1014E00008F070E37C932013B8F77E9170617D93D0
:1014F00030F0839571E37D9370E32A95E1F7112431
:10150000EF90FF900F911F91CF91DF91992787FD69
:1015100090950895FB01DC0105900D920020E1F704
:101520000895A9E0B0E0E6E9FAE058C16A01122F97
:10153000B02E2BE3201720F0FF24F394F00E02C00E
:101540002CE3F22E0F2D27E0AE014F5F5F4F0ADF35
:10155000BC014981842F8970813031F0E1FC06C0E3
:10156000E0FE06C090E205C09DE203C09BE201C020
:1015700090E05E2D507143FF3CC0911102C083E0AA
:1015800001C084E0811718F4212F281B01C020E03E
:1015900051110BC0F601822F30E2882319F03193EC
:1015A0008150FBCFC20ED11C20E0992329F0D60137
:1015B0009C93F60131966F01C6010396E2FE0AC0C4
:1015C0003EE4D6013C9341E411964C931197129658
:1015D0003C9306C03EE6F601308341E64183328308
:1015E000FC01322F40E2332309F442C041933150D1
:1015F000FACF42FF44C0911102C083E001C084E0F1
:10160000811718F4212F281B01C020E051110BC0B5
:10161000F601822F30E2882319F031938150FBCFFD
:10162000C20ED11C20E0992329F0D6019C93F6012B
:1016300031966F01C6010396E2FE0BC039E4D60174
:101640003C933EE411963C93119736E412963C93FA
:1016500007C039E6F60130833EE6318336E6328351
:10166000FC01322F40E2332319F041933150FBCF7C
:10167000FC01E20FF11D10828EEF9FEFA6C021E06A
:1016800030E0911102C020E030E0161617061CF47D
:10169000FB01319602C0E1E0F0E02E0F3F1FBB20BE
:1016A00021F0EB2DF0E0319602C0E0E0F0E02E0FEB
:1016B0003F1FE12FF0E02E173F071CF4121B212FD4
:1016C00001C020E08E2D887159F4F601822F30E29E
:1016D000882319F031938150FBCFC20ED11C20E03A
:1016E000992329F0D6019C93F60131966F0151118F
:1016F0000BC0F601822F90E3882319F0919381505B
:10170000FBCFC20ED11C20E00F2D060F9A81342F83
:10171000307144FF03C0913309F40150101624F4D2
:10172000093018F008E001C001E0AB0177FF02C00A
:1017300040E050E0FB01E41BF50BA1E0B0E0AC0F92
:10174000BD1FEA0FFB1F8EE2A82E4B01801A9108E5
:101750000B2D10E01195019511094F3FBFEF5B076D
:1017600021F4D601AC9211966D01641775072CF027
:101770008416950614F4818101C080E3415051091B
:101780003196D60111967D014017510724F0D601FC
:101790008C936701E2CF6417750739F4963320F410
:1017A000953319F4311101C081E3F6018083F7010B
:1017B000822F90E2882319F091938150FBCFF7019B
:1017C000E20FF11D108280E090E02996ECE01FC04E
:1017D0002F923F924F925F926F927F928F929F9241
:1017E000AF92BF92CF92DF92EF92FF920F931F932F
:1017F000CF93DF93CDB7DEB7CA1BDB0BCDBFDEBF08
:1018000009942A88398848885F846E847D848C8412
:101810009B84AA84B984C884DF80EE80FD800C811B
:101820001B81AA81B981CE0FD11DCDBFDEBFED01D5
:061830000895F894FFCFBB
:10183600200A0000000000000000546C6163697417
:101846006B6F20746C6163656E6F200020730A00F5
:101856000A0A73746172740A626172612D623031B0
:1018660030313030303031313131202F20626172E9
:10187600622D62303130313030303031313131200B
:101886002862696E203132206D69737429202F2FEA
:1018960020626172612D37202F20626172622D31C4
:1018A60031202864656320302D313229202F2F20E6
:1018B6006F75742D312028302F312F74290A004E70
:1018C60061206B6F6E6369206B617A6465686F2057
:1018D6007072696B617A75206A65206D657A6572CA
:1018E600613A2027626172612D313120270A0A0090
:1018F60063656B616E69206E612074657374206622
:101906006C6F617420696E7075742E2E2E0A00201D
:101916002F6E00207074723A0020627566663A2750
:10192600002720706F733A00746573742076616CBB
:101936003A270020653A004552523A2043687962B8
:10194600612063696E2C206576456E6454797065F6
:101956003A00206F63656B6176616E6F3A20652F82
:101966006D005A6168617A6F76616E69207A627974
:101976006C796368206461742E2E2E00486F746F34
:10198600766F3A004552523A200020286453697A0D
:10199600653A00206C617374506F733A002062439D
:1019A600686172733A00206543686172733A002079
:1019B600613A0020623A0020737472546F56616C6B
:1019C600456E64547970653A0020737472546F568C
:1019D600616C506F733A004552523A204E656F6300
:1019E600656B6176616E79207A6E616B2028706F07
:1019F600733A00202700273D0029206F63656B613D
:101A060076616E6F20302D390A004552523A204DCC
:101A16006178333262207072656B726F63656E6FC8
:101A2600202876616C3A00205B706F735D3A00295E
:101A3600206F63656B6176616E6F20302F310A000F
:101A460070506F735F303A0020643A2700272000F9
:101A560070506F733A00206E3A00206469763A003F
:101A66004E414E002B494E46002D494E4600612000
:101A7600456E6454797065213D27652700622045CF
:101A86006E6454797065213D276527006520456E93
:101A96006454797065213D2765270020746D703A7E
:101AA6000045206D696D6F20726F7A736168202B17
:101AB6002F2D32353000206D303A00206D756C7454
:071AC6003A002E65452000E7
:081ACD00140003002069690008
:00000001FF
